S00A000054322E7372656394
S11300000C9434000C943E000C943E000C943E007E
S11300100C943E000C943E000C943E000C943E0064
S11300200C943E000C943E000C943E000C943E0054
S11300300C943E000C943E000C943E000C943E0044
S11300400C943E000C943E000C943E000C943E0034
S11300500C943E000C943E000C943E000C943E0024
S11300600C943E000C943E0011241FBECFEFD8E048
S1130070DEBFCDBF0E9440000C9465000C940000CC
S1130080389A84B18FEF84B918B815B865E870E070
S113009045E8C4E8D0E03EEEE0E8F0E001E810E036
S11300A023E091E0DB014C9338831082D8012C9338
S11300B0B09BFECF1082B09A88B1892788B9409B43
S11100C0F1CF85B18F5F85B9EDCFF894FFCFF6
S9030000FC
