:100000000C9434000C9446000C9446000C9446006A
:100010000C9446000C9446000C9446000C94460048
:100020000C9446000C9446000C9446000C94460038
:100030000C9446000C9446000C9446000C94460028
:100040000C9446000C9446000C9446000C94460018
:100050000C9446000C9465000C9446000C944600E9
:100060000C9446000C94460011241FBECFEFD8E03C
:10007000DEBFCDBF21E0A0E0B1E001C01D92A13004
:10008000B207E1F70E9484000C94BB000C940000BE
:10009000ECE7F0E010828081806C80838081806258
:1000A0008083EAE7F0E080818660808380818062DF
:1000B000808310927B00808180688083808188604B
:1000C000808380818064808308951F920F920FB691
:1000D0000F9211248F9380917900809300018F916A
:1000E0000F900FBE0F901F901895181619065CF40C
:1000F00020E030E042E04A95F1F700C02F5F3F4F2B
:1001000028173907B9F708950E944800789417B85E
:100110008FEF84B90F2EF6E0FF2EF02DC9EA0CE028
:1001200019E0D3E0F5B880910001C89FC001112407
:10013000805E914B0E94750005B980910001C89FB7
:10014000C0011124805E914B0E94750015B9809109
:100150000001C89FC0011124805E914B0E94750070
:10016000D5B980910001C89FC0011124805E914BD8
:0A0170000E947500D7CFF894FFCF6E
:00000001FF
