:100000000C9434000C9446000C9446000C9446006A
:100010000C9446000C9446000C9446000C94460048
:100020000C9446000C9446000C9446000C94460038
:100030000C9446000C9446000C9446000C94460028
:100040000C9446000C9446000C9446000C94460018
:100050000C9446000C9465000C9446000C944600E9
:100060000C9446000C94460011241FBECFEFD8E03C
:10007000DEBFCDBF21E0A0E0B1E001C01D92A13004
:10008000B207E1F70E9475000C9499000C940000EF
:10009000ECE7F0E010828081806C80838081806258
:1000A0008083EAE7F0E080818660808380818062DF
:1000B000808310927B00808180688083808188604B
:1000C000808380818064808308951F920F920FB691
:1000D0000F9211248F9380917900809300018F916A
:1000E0000F900FBE0F901F9018950E9448007894B3
:1000F0001AB88FEF8BB984B980E29EE490938700A1
:1001000080938600E0E8F0E0808182688083E1E807
:10011000F0E080818A61808325E1E8E8F0E0809169
:100120000001289FC00111248C599F4F9183808327
:06013000F6CFF894FFCFAA
:00000001FF
