S00B00004441362E737265635E
S11300000C9434000C9451000C9451000C94510045
S11300100C9451000C9451000C9451000C94510018
S11300200C9451000C9451000C9451000C94510008
S11300300C9451000C9451000C9451000C945100F8
S11300400C9451000C9451000C9451000C945100E8
S11300500C9451000C94DF000C9451000C9451004A
S11300600C9451000C94510011241FBECFEFD8E022
S1130070DEBFCDBF11E0A0E0B1E0EAE2F7E002C0EC
S113008005900D92A031B107D9F721E0A0E1B1E0CC
S113009001C01D92A131B207E1F70E94EF000C9458
S11300A093030C9400008BB9289829982A9A82E02B
S11300B08A95F1F700C02A9887EC90E00197F1F750
S11300C000C0000008958BB9289A29982A9A82E0E2
S11300D08A95F1F700C02A9887EC90E00197F1F730
S11300E000C0000008958FEF8AB984B92A988FE977
S11300F09FE00197F1F700C0000088E30E945300DD
S11301008EE00E94530081E00E9453008FE99FE03B
S11301100197F1F700C0000086E00E9453000895A3
S1130120CF93DF9300D0CDB7DEB790E8998390ECFE
S11301309A838150FE01E60FF11D9081890F0E9480
S1130140530087EC90E00197F1F700C000000F9096
S11301500F90DF91CF9108950F931F93CF93FC01DC
S11301608081882359F08F01C0E00E946300CF5F33
S1130170F801EC0FF11D80818111F7CFCF911F9110
S11301800F910895ECE7F0E010828081806C808309
S1130190808180628083EAE7F0E0808186608083EA
S11301A080818062808310927B008081806880835C
S11301B080818860808380818064808308951F9219
S11301C00F920FB60F9211248F9380917900809330
S11301D010018F910F900FBE0F901F9018950E94E1
S11301E0C20078940E947300C0E0D1E00AE010E0FD
S11301F06091100170E080E090E00E9472022DECAA
S11302003CEC4CE85AE30E94FE022AE037ED43E25C
S11302105CE30E94C80126E636E646EE5FE30E94F0
S1130220FE0220E030E040E052E40E945C016B01F9
S11302307C0120E030E040E251E40E94C80120E06B
S113024030E040E452E40E945C010E944102698370
S1130250C701B6010E943A02CB01B8010E946B03A8
S1130260805D8A8320E030E040E251E4C701B601BA
S11302700E94FE020E943A02CB01B8010E946B0365
S1130280805D8C8361E081E00E94900087E091E0D2
S11302900E94AC0062E081E00E949000CE010E94C6
S11302A0AC002FEF84E39CE0215080409040E1F7C4
S11302B000C000009DCF5058BB27AA270E9473019D
S11302C00C94C4020E94B60238F00E94BD0220F0D1
S11302D039F49F3F19F426F40C94B3020EF4E0951C
S11302E0E7FB0C94AD02E92F0E94D50258F3BA172C
S11302F0620773078407950720F079F4A6F50C9438
S1130300F7020EF4E0950B2EBA2FA02D0B01B901C4
S113031090010C01CA01A0011124FF27591B99F077
S1130320593F50F4503E68F11A16F040A22F232F83
S1130330342F4427585FF3CF469537952795A795D3
S1130340F0405395C9F77EF41F16BA0B620B730B7A
S1130350840BBAF09150A1F0FF0FBB1F661F771FEB
S1130360881FC2F70EC0BA0F621F731F841F48F4A0
S1130370879577956795B795F7959E3F08F0B0CF29
S11303809395880F08F09927EE0F97958795089510
S11303900E94DC010C94C4020E94BD0258F00E9429
S11303A0B60240F029F45F3F29F00C94AD025111DC
S11303B00C94F8020C94B3020E94D50268F39923BA
S11303C0B1F3552391F3951B550BBB27AA2762174D
S11303D07307840738F09F5F5F4F220F331F441F5A
S11303E0AA1FA9F335D00E2E3AF0E0E832D091508E
S11303F05040E695001CCAF72BD0FE2F29D0660F7B
S1130400771F881FBB1F261737074807AB07B0E8BD
S113041009F0BB0B802DBF01FF2793585F4F3AF0C3
S11304209E3F510578F00C94AD020C94F8025F3FA6
S1130430E4F3983ED4F3869577956795B795F79549
S11304409F5FC9F7880F911D9695879597F9089531
S1130450E1E0660F771F881FBB1F621773078407CD
S1130460BA0720F0621B730B840BBA0BEE1F88F7DC
S1130470E09508950E9441026894B1110C94F80229
S113048008950E94DD0288F09F5798F0B92F9927AC
S1130490B751B0F0E1F0660F771F881F991F1AF06B
S11304A0BA95C9F714C0B13091F00E94F702B1E0D7
S11304B008950C94F702672F782F8827B85F39F0D6
S11304C0B93FCCF3869577956795B395D9F73EF404
S11304D090958095709561957F4F8F4F9F4F0895AC
S11304E0E89409C097FB3EF49095809570956195CA
S11304F07F4F8F4F9F4F9923A9F0F92F96E9BB2780
S11305009395F695879577956795B795F111F8CFFB
S1130510FAF4BB0F11F460FF1BC06F5F7F4F8F4F66
S11305209F4F16C0882311F096E911C0772321F05C
S11305309EE8872F762F05C0662371F096E8862FF4
S113054070E060E02AF09A95660F771F881FDAF74B
S1130550880F9695879597F9089597F99F6780E88E
S113056070E060E008959FEF80EC089500240A9401
S11305701616170618060906089500240A9412167A
S11305801306140605060895092E0394000C11F4AD
S1130590882352F0BB0F40F4BF2B11F460FF04C05A
S11305A06F5F7F4F8F4F9F4F089557FD9058440FB3
S11305B0551F59F05F3F71F04795880F97FB991FBE
S11305C061F09F3F79F0879508951216130614067B
S11305D0551FF2CF4695F1DF08C016161706180608
S11305E0991FF1CF86957105610508940895E894E3
S11305F0BB2766277727CB0197F908950E9411033B
S11306000C94C4020E94B60238F00E94BD0220F08D
S1130610952311F00C94AD020C94B30211240C94A4
S1130620F8020E94D50270F3959FC1F3950F50E034
S1130630551F629FF001729FBB27F00DB11D639F90
S1130640AA27F00DB11DAA1F649F6627B00DA11D36
S1130650661F829F2227B00DA11D621F739FB00DDC
S1130660A11D621F839FA00D611D221F749F33274C
S1130670A00D611D231F849F600D211D822F762FE5
S11306806A2F11249F5750409AF0F1F088234AF0C2
S1130690EE0FFF1FBB1F661F771F881F915050402E
S11306A0A9F79E3F510580F00C94AD020C94F8021A
S11306B05F3FE4F3983ED4F3869577956795B795B5
S11306C0F795E7959F5FC1F7FE2B880F911D9695CF
S11306D0879597F9089597FB072E16F4009407D091
S11306E077FD09D00E947F0307FC05D03EF4909566
S11306F081959F4F0895709561957F4F0895AA1B2A
S1130700BB1B51E107C0AA1FBB1FA617B70710F0F8
S1130710A61BB70B881F991F5A95A9F7809590952A
S10D0720BC01CD010895F894FFCF49
S113072A2020202E20460054656D702069733A00FB
S9030000FC
