S00A000054342E7372656392
S11300000C9434000C9446000C9446000C94460066
S11300100C9446000C9446000C9446000C94460044
S11300200C9446000C9446000C9446000C94460034
S11300300C9446000C9448000C9446000C94460022
S11300400C9446000C9446000C9446000C94460014
S11300500C9446000C9446000C9446000C94460004
S11300600C9446000C94460011241FBECFEFD8E038
S1130070DEBFCDBF21E0A0E0B1E001C01D92A430FD
S1130080B207E1F70E948C000C94A4000C940000C9
S11300901F920F920FB60F9211248F939F93B09AD1
S11300A098B181E0892788B9409B29C085B18F5FC9
S11300B085B9809102019091030101969093030107
S11300C0809302010597D9F498B180E2892788B911
S11300D0109203011092020180910001909101019C
S11300E001969093010180930001029741F498B125
S11300F080E4892788B9109201011092000185E8F3
S1130100809385008EEE809384009F918F910F9051
S11301100FBE0F901F90189587B1816687B984B17F
S11301208FEF84B918B815B885E8809385008EEEF2
S1130130809384001092800083E08093810081E0AA
S10F014080936F007894FFCFF894FFCFF9
S9030000FC
