S00A000054332E7372656393
S11300000C9434000C943E000C943E000C943E007E
S11300100C943E000C943E000C943E000C943E0064
S11300200C943E000C943E000C943E000C943E0054
S11300300C943E000C943E000C943E000C943E0044
S11300400C943E000C943E000C943E000C943E0034
S11300500C943E000C943E000C943E000C943E0024
S11300600C943E000C943E0011241FBECFEFD8E048
S1130070DEBFCDBF0E9440000C9482000C940000AF
S113008087B1816687B984B18FEF84B918B815B880
S113009045E850E0C4E8D0E0E0E8F0E00F2EF1E8F5
S11300A0AF2EB12CF02D31E025E89EEE75E068947A
S11300B0EE24E1F8F12C63E06894DD24D5F8072FF1
S11300C010E0DA012C9398831082D5016C93B09BD5
S11300D0FECF1082B09A88B1832788B9409BF1CFB4
S11300E085B18F5F85B90150110959F788B18D2504
S11300F088B9B1E0EB1AF10811F768B180E48627FA
S10B010088B9D5CFF894FFCFB4
S9030000FC
