:100000000C9434000C943E000C943E000C943E0082
:100010000C943E000C943E000C943E000C943E0068
:100020000C943E000C943E000C943E000C943E0058
:100030000C943E000C943E000C943E000C943E0048
:100040000C943E000C943E000C943E000C943E0038
:100050000C943E000C943E000C943E000C943E0028
:100060000C943E000C943E0011241FBECFEFD8E04C
:10007000DEBFCDBF0E9440000C9480000C940000B5
:100080008FEF8AB984B929E127BD91EC94BD81E055
:1000900085BD49E150E050938900409388009093DA
:1000A0008000809381002093B3009093B0008093F0
:1000B000B10079E1A8E8B0E0E3EBF0E069E150E0FD
:1000C000972F472F47BD262F352F11963C932E9300
:1000D000892F80831FEFC4E3DCE01150C040D04083
:1000E000E1F700C000008E5C833199F72E5C3F4F32
:1000F000233111E0310749F74E5C433119F7E1CF65
:04010000F894FFCFA1
:00000001FF
