:100000000C9434000C943E000C943E000C943E0082
:100010000C943E000C943E000C943E000C943E0068
:100020000C943E000C943E000C943E000C943E0058
:100030000C943E000C943E000C943E000C943E0048
:100040000C943E000C943E000C943E000C943E0038
:100050000C943E000C943E000C943E000C943E0028
:100060000C943E000C943E0011241FBECFEFD8E04C
:10007000DEBFCDBF0E9440000C945C000C940000D9
:10008000389A18B865E870E045E8C4E8D0E03EEE7C
:10009000E0E8F0E001E810E023E091E0DB014C93C0
:1000A00038831082D8012C93B09BFECF1082B09A77
:0C00B00088B1892788B9F2CFF894FFCFFF
:00000001FF
