S00B00004441332E7372656361
S11300000C9434000C9446000C9446000C94460066
S11300100C9446000C9446000C9446000C94460044
S11300200C9446000C9446000C9446000C94460034
S11300300C9446000C9498000C9446000C944600D2
S11300400C9446000C9446000C9446000C94460014
S11300500C9446000C9488000C9446000C944600C2
S11300600C9446000C94460011241FBECFEFD8E038
S1130070DEBFCDBF21E0A0E0B1E001C01D92A230FF
S1130080B207E1F70E94DB000C94E3000C9400003B
S113009088E18093C10086E08093C2001092C5007D
S11300A083E38093C4000895ECE7F0E0108280813C
S11300B080648083808180628083EAE7F0E08081CD
S11300C08660808380818062808310927B0080813F
S11300D0806880838081886080838081806480835D
S11300E0089582EC8093850086EF809384001092BB
S11300F0800084E08093810081E080936F00089504
S1130100E0ECF0E0908195FFFDCF8093C600089568
S11301101F920F920FB60F9211248F938091790042
S1130120809301018F910F900FBE0F901F9018952F
S11301301F920F920FB60F9211242F933F934F9358
S11301405F936F937F938F939F93AF93BF93CF935B
S1130150DF93EF93FF93D0910101CDECDC9FC12D90
S11301601124C695C695C69580E38C0F0E94800025
S1130170CC0F8C2F880F880FC80F8D2F8C1B805DA0
S11301800E94800086E40E9480008AE00E94800031
S1130190FF91EF91DF91CF91BF91AF919F918F919B
S11301A07F916F915F914F913F912F910F900FBE6F
S11301B00F901F9018950E9471000E9448000E94A1
S10D01C054007894FFCFF894FFCFA9
S9030000FC
