S00D000046696E616C2E737265632D
S11300000C9434000C9451000C9451000C94510045
S11300100C9451000C9451000C9451000C94510018
S11300200C9451000C9451000C9451000C94510008
S11300300C9451000C9451000C9451000C945100F8
S11300400C9451000C9451000C9451000C945100E8
S11300500C9451000C9451000C9451000C945100D8
S11300600C9451000C94510011241FBECFEFD8E022
S1130070DEBFCDBF11E0A0E0B1E0EAEFF1E102C0E4
S113008005900D92AA36B107D9F721E0AAE6B1E0AE
S113009001C01D92AD39B207E1F70E94E6010C944C
S11300A0FB080C9400001092B9008CE08093B80017
S11300B0089594EA9093BC004FEF50E060E070E044
S11300C0ECEBF0E09081992334F04150510961093F
S11300D07109C0F704C0452B462B472B41F1909181
S11300E0B900987F983011F0903119F58093BB00D6
S11300F084E88093BC008FEF90E0A0E0B0E0ECEBEC
S1130100F0E0208122232CF00197A109B109C8F75E
S113011004C0892B8A2B8B2B71F09091B900987FA6
S1130120983159F081E0903449F480E0089581E0F9
S1130130089581E0089581E0089580E008951F9373
S1130140CF93DF93ECEBF0E064EA50E040E0A9EBFE
S1130150B0E0CBEBD0E074E814E96083252F342FB2
S11301609081992334F02F5F3F4F211591E0390797
S1130170B9F79C91987F983011F0903171F788838A
S11301807083252F342F9081992334F02F5F3F4FB4
S1130190211591E03907B9F79C91987F903211F0BD
S11301A0983569F41083252F342F908194FFD5CF8F
S11301B02F5F3F4F211591E03907B9F7CECFDF917B
S11301C0CF911F9108950E945900089584E9809366
S11301D0BC0080E090E0ECEBF0E0208124FF05C05F
S11301E00196811521E09207C1F708958093BB0021
S11301F084E88093BC008FEF90E0A0E0B0E0ECEBEB
S1130200F0E0208122232CF00197A109B109C8F75D
S113021004C0892B8A2B8B2B41F09091B900987FD5
S113022081E0983219F480E0089581E0089584EC27
S11302308093BC008FEF90E0A0E0B0E0ECEBF0E046
S1130240208122232CF00197A109B109C8F704C029
S1130250892B8A2B8B2B19F08091BB00089580E0A9
S1130260089584E88093BC008FEF90E0A0E0B0E0B4
S1130270ECEBF0E0208122232CF00197A109B109D5
S1130280C8F704C0892B8A2B8B2B19F08091BB00F3
S1130290089580E0089586E48093C2001092C5001A
S11302A081E28093C40088E08093C1000895CF93D5
S11302B0DF93FC012081222369F0DC011196E0EC3C
S11302C0F0E0C6ECD0E0908195FFFDCF28832D911E
S11302D02111F9CFDF91CF910895CF93DF93D62FDA
S11302E0C42F0E9459008D2F0E94F6008C2F0E946B
S11302F0F6000E94E600DF91CF910895CF93DF933B
S1130300C82FD62F0E949F008D2F0E94F60081E0F7
S11303108C0F0E94E3000E941701C82F0E94310134
S1130320D0E0DC2FCC27C82B0E94E600CE01DF9161
S1130330CF910895CF93C82F0E94590080939C01B8
S1130340882381F083E2E0E0F1E0AAE6B1E00190E5
S11303500D928A95E1F78AE691E00E9457010E9486
S1130360E60030C040E06BE68C2F0E946D0147E050
S113037069E18C2F0E946D0148E16CE18C2F0E9491
S11303806D0148EF63E28C2F0E946D0140E167E349
S11303908C2F0E946D0141E068E38C2F0E946D0157
S11303A040E46AE68C2F0E946D018EE0E3E2F1E006
S11303B0AAE6B1E001900D928A95E1F78AE691E010
S11303C00E9457010E94E600CF910895CF93DF93D6
S11303D0CDB7DEB760970FB6F894DEBF0FBECDBFC2
S11303E080EF8AB917B80E944B010E9453002FEF87
S11303F081EE94E0215080409040E1F700C000007D
S113040080ED0E949A01AFEFB1EEE4E0A150B0405C
S1130410E040E1F700C0000084E1E1E3F1E0AAE696
S1130420B1E001900D928A95E1F78AE691E00E948D
S113043057010F2EFAE0CF2ED12CF02D812C912CC8
S113044000E010E0E12CF12C6BE380ED0E947E01D2
S1130450E80EF91E6DE380ED0E947E01080F191F5E
S11304606FE380ED0E947E01880E991EF1E0CF1AA1
S1130470D10851F72AE030E0C701B9010E94EE0526
S11304807B01C801B9010E94EE058B01C401B901C9
S11304900E94EE05C701FF0CAA0BBB0B8D839E8344
S11304A0AF83B887C801110FAA0BBB0B89879A8742
S11304B0AB87BC87CB01770FAA0BBB0B8D879E87BD
S11304C0AF87B88B0F2EF5E42F2EF1E03F2EF02DE1
S11304D00F2EF2E3BF2EF02D0F2EFAE68F2EF1E051
S11304E09F2EF02D6BE380ED0E947E018C016BE367
S11304F080ED0E947E01080F191F6BE380ED0E94BE
S11305007E01800F911FBC01990F880B990B0E94EB
S1130510F50420E030E040E450E40E944B046B0119
S11305207C016D817E818F8198850E94F5049B01F9
S1130530AC01C701B6010E94DE0320E030E040E0D8
S11305405AE30E9481056B017C016DE380ED0E94FA
S11305507E018C016DE380ED0E947E01080F191F5E
S11305606DE380ED0E947E01800F911FBC01990F05
S1130570880B990B0E94F50420E030E040E450E43D
S11305800E944B042B013C0169857A858B859C85EF
S11305900E94F5049B01AC01C301B2010E94DE0379
S11305A020E030E040E05AE30E9481052B013C0149
S11305B06FE380ED0E947E018C016FE380ED0E9469
S11305C07E01080F191F6FE380ED0E947E01800FEA
S11305D0911FBC01990F880B990B0E94F50420E030
S11305E030E040E450E40E944B0469837A838B83B7
S11305F09C836D857E858F8598890E94F5049B0177
S1130600AC0169817A818B819C810E94DE0320E0A8
S113061030E040E05AE30E94810569837A838B834A
S11306209C8320E030E048EC52E40E9481050E9463
S1130630BD04CB016AE070E00E94EE059C019923A1
S113064024F422273327281B390B3F932F9320E0D0
S113065030E040E251E469817A818B819C810E947F
S113066081050E94BD04CB016AE070E00E94EE05A2
S11306709C01992324F422273327281B390B3F9309
S11306802F9369817A818B819C810E94BD04CB0167
S11306906AE070E00E94EE059F938F9320E030E0C3
S11306A048EC52E4C301B2010E9481050E94BD04DA
S11306B0CB016AE070E00E94EE059C01992324F4CA
S11306C022273327281B390B3F932F9320E030E058
S11306D040E251E4C301B2010E9481050E94BD04BD
S11306E0CB016AE070E00E94EE059C01992324F49A
S11306F022273327281B390B3F932F93C301B201C1
S11307000E94BD04CB016AE070E00E94EE059F9355
S11307108F9320E030E048EC52E4C701B6010E9418
S113072081050E94BD04CB016AE070E00E94EE05E1
S11307309C01992324F422273327281B390B3F9348
S11307402F9320E030E040E251E4C701B6010E945B
S113075081050E94BD04CB016AE070E00E94EE05B1
S11307609C01992324F422273327281B390B3F9318
S11307702F93C701B6010E94BD04CB016AE070E06B
S11307800E94EE059F938F933F922F921F92BF92E8
S11307909F928F920E941606C4010E9457019FEFF8
S11307A0A4E3BCE09150A040B040E1F700C00000D9
S11307B00FB6F894DEBF0FBECDBF94CE5058BB2702
S11307C0AA270E94F6030C9447050E94390538F0C5
S11307D00E94400520F039F49F3F19F426F40C944C
S11307E036050EF4E095E7FB0C943005E92F0E94E2
S11307F0580558F3BA17620773078407950720F062
S113080079F4A6F50C947A050EF4E0950B2EBA2F24
S1130810A02D0B01B90190010C01CA01A001112402
S1130820FF27591B99F0593F50F4503E68F11A16AE
S1130830F040A22F232F342F4427585FF3CF46953F
S113084037952795A795F0405395C9F77EF41F1661
S1130850BA0B620B730B840BBAF09150A1F0FF0F2B
S1130860BB1F661F771F881FC2F70EC0BA0F621F17
S1130870731F841F48F4879577956795B795F79507
S11308809E3F08F0B0CF9395880F08F09927EE0F9C
S11308909795879508950E945F040C9447050E94DC
S11308A0400558F00E94390540F029F45F3F29F0D3
S11308B00C94300551110C947B050C9436050E9460
S11308C0580568F39923B1F3552391F3951B550B00
S11308D0BB27AA2762177307840738F09F5F5F4F0F
S11308E0220F331F441FAA1FA9F335D00E2E3AF04E
S11308F0E0E832D091505040E695001CCAF72BD066
S1130900FE2F29D0660F771F881FBB1F26173707B6
S11309104807AB07B0E809F0BB0B802DBF01FF27E8
S113092093585F4F3AF09E3F510578F00C94300590
S11309300C947B055F3FE4F3983ED4F3869577955A
S11309406795B795F7959F5FC9F7880F911D9695A1
S1130950879597F90895E1E0660F771F881FBB1FFD
S1130960621773078407BA0720F0621B730B840BAA
S1130970BA0BEE1F88F7E09508950E94C4046894AA
S1130980B1110C947B0508950E94600588F09F576F
S113099098F0B92F9927B751B0F0E1F0660F771F9F
S11309A0881F991F1AF0BA95C9F714C0B13091F095
S11309B00E947A05B1E008950C947A05672F782F88
S11309C08827B85F39F0B93FCCF38695779567955A
S11309D0B395D9F73EF490958095709561957F4FC6
S11309E08F4F9F4F0895E89409C097FB3EF490956C
S11309F08095709561957F4F8F4F9F4F9923A9F0F4
S1130A00F92F96E9BB279395F69587957795679582
S1130A10B795F111F8CFFAF4BB0F11F460FF1BC0C6
S1130A206F5F7F4F8F4F9F4F16C0882311F096E959
S1130A3011C0772321F09EE8872F762F05C0662307
S1130A4071F096E8862F70E060E02AF09A95660FC0
S1130A50771F881FDAF7880F9695879597F9089579
S1130A6097F99F6780E870E060E008959FEF80EC5D
S1130A70089500240A941616170618060906089500
S1130A8000240A9412161306140605060895092E66
S1130A900394000C11F4882352F0BB0F40F4BF2BD5
S1130AA011F460FF04C06F5F7F4F8F4F9F4F089515
S1130AB057FD9058440F551F59F05F3F71F047950B
S1130AC0880F97FB991F61F09F3F79F087950895F0
S1130AD0121613061406551FF2CF4695F1DF08C00F
S1130AE0161617061806991FF1CF8695710561052C
S1130AF008940895E894BB2766277727CB0197F9D4
S1130B0008950E9494050C9447050E94390538F015
S1130B100E94400520F0952311F00C9430050C94AC
S1130B20360511240C947B050E94580570F3959F9B
S1130B30C1F3950F50E0551F629FF001729FBB27D0
S1130B40F00DB11D639FAA27F00DB11DAA1F649F6C
S1130B506627B00DA11D661F829F2227B00DA11D1F
S1130B60621F739FB00DA11D621F839FA00D611DA5
S1130B70221F749F3327A00D611D231F849F600DC6
S1130B80211D822F762F6A2F11249F5750409AF0EF
S1130B90F1F088234AF0EE0FFF1FBB1F661F771F7B
S1130BA0881F91505040A9F79E3F510580F00C9446
S1130BB030050C947B055F3FE4F3983ED4F38695AF
S1130BC077956795B795F795E7959F5FC1F7FE2BE6
S1130BD0880F911D9695879597F9089597FB072E91
S1130BE016F4009407D077FD09D00E94020607FC92
S1130BF005D03EF4909581959F4F08957095619529
S1130C007F4F0895AA1BBB1B51E107C0AA1FBB1F3E
S1130C10A617B70710F0A61BB70B881F991F5A9584
S1130C20A9F780959095BC01CD010895AEE0B0E0A0
S1130C30ECE1F6E00C94D2080D891E898F89988D19
S1130C4026E02C831A83098397FF02C080E090E892
S1130C5001979E838D83AE01455E5F4F698D7A8DCA
S1130C60CE0101960E9446064D815E8157FD0AC061
S1130C702F813885421753070CF49A01F801E20FCB
S1130C80F31F10822E96E4E00C94EE08ACE0B0E082
S1130C90ECE4F6E00C94C4087C016B018A01FC01CD
S1130CA017821682838181FFBDC1CE0101964C015A
S1130CB0F7019381F60193FD859193FF81916F0173
S1130CC0882309F4ABC1853239F493FD859193FFF0
S1130CD081916F01853229F4B70190E00E942E08BA
S1130CE0E7CF512C312C20E02032A0F48B3269F074
S1130CF030F4803259F0833269F420612CC08D3293
S1130D0039F0803339F4216026C02260246023C086
S1130D10286021C027FD27C030ED380F3A3078F421
S1130D2026FF06C0FAE05F9E300D1124532E13C037
S1130D308AE0389E300D1124332E20620CC08E328E
S1130D4021F426FD6BC1206406C08C3611F42068A2
S1130D5002C0883641F4F60193FD859193FF819199
S1130D606F018111C1CF982F9F7D9554933028F442
S1130D700C5F1F4FFFE3F9830DC0833631F08337D7
S1130D8071F0833509F05BC022C0F801808189834A
S1130D900E5F1F4F44244394512C540115C0380155
S1130DA0F2E06F0E711CF801A080B18026FF03C031
S1130DB0652D70E002C06FEF7FEFC5012C870E94A4
S1130DC023082C0183012C852F77222E17C038018C
S1130DD0F2E06F0E711CF801A080B18026FF03C001
S1130DE0652D70E002C06FEF7FEFC5012C870E9474
S1130DF018082C012C852068222E830123FC1BC09B
S1130E00832D90E048165906B0F4B70180E290E0D3
S1130E100E942E083A94F4CFF50127FC859127FE11
S1130E2081915F01B70190E00E942E0831103A943D
S1130E30F1E04F1A51084114510471F7E5C08436AA
S1130E4011F0893639F5F80127FF07C060817181F7
S1130E50828193810C5F1F4F08C060817181072ECE
S1130E60000C880B990B0E5F1F4F2F76722E97FF85
S1130E7009C090958095709561957F4F8F4F9F4FD6
S1130E802068722E2AE030E0A4010E946608A82E91
S1130E90A81844C0853729F42F7EB22E2AE030E00A
S1130EA025C0F22FF97FBF2E8F36C1F018F4883594
S1130EB079F0B4C0803719F0883721F0AFC02F2FF4
S1130EC02061B22EB4FE0DC08B2D8460B82E09C0F3
S1130ED024FF0AC09F2F9660B92E06C028E030E098
S1130EE005C020E130E002C020E132E0F801B7FEA5
S1130EF007C060817181828193810C5F1F4F06C09E
S1130F006081718180E090E00E5F1F4FA4010E9418
S1130F106608A82EA818FB2DFF777F2E76FE0BC03F
S1130F20372D3E7FA51450F474FE0AC072FC08C02D
S1130F30372D3E7E05C0BA2C372D03C0BA2C01C014
S1130F40B52C34FF0DC0FE01EA0DF11D8081803304
S1130F5011F4397E09C032FF06C0B394B39404C0BF
S1130F60832F867809F0B39433FD13C030FF06C095
S1130F705A2CB31418F4530C5B18B32CB31468F440
S1130F80B70180E290E03C870E942E08B3943C8530
S1130F90F5CFB31410F43B1801C0312C34FF12C048
S1130FA0B70180E390E03C870E942E083C8532FF25
S1130FB017C031FD03C088E790E002C088E590E0E7
S1130FC0B7010CC0832F867859F031FF02C08BE241
S1130FD001C080E237FD8DE2B70190E00E942E0847
S1130FE0A51438F4B70180E390E00E942E085A94C7
S1130FF0F7CFAA94F401EA0DF11D8081B70190E0C6
S11310000E942E08A110F5CF332009F451CEB70168
S113101080E290E00E942E083A94F6CFF701868190
S1131020978102C08FEF9FEF2C96E2E10C94E008C9
S1131030FC010590615070400110D8F7809590959F
S11310408E0F9F1F0895FC016150704001900110A4
S1131050D8F7809590958E0F9F1F08950F931F9337
S1131060CF93DF93FB01238121FD03C08FEF9FEF1B
S113107028C022FF16C0468157812481358142173A
S1131080530744F4A081B1819D012F5F3F4F318309
S113109020838C93268137812F5F3F4F37832683AC
S11310A010C0EB01092F182F0084F185E02D09955C
S11310B0892BE1F68E819F8101969F838E83812FF8
S11310C0902FDF91CF911F910F910895FA01AA27D4
S11310D0283051F1203181F1E8946F936E7F6E5F77
S11310E07F4F8F4F9F4FAF4FB1E03ED0B4E03CD025
S11310F0670F781F891F9A1FA11D680F791F8A1F08
S1131100911DA11D6A0F711D811D911DA11D20D06E
S113111009F468943F912AE0269F11243019305D28
S11311203193DEF6CF010895462F4770405D419319
S1131130B3E00FD0C9F7F6CF462F4F70405D4A3366
S113114018F0495D31FD4052419302D0A9F7EACF2E
S1131150B4E0A6959795879577956795BA95C9F75D
S113116000976105710508959B01AC010A2E069450
S11311705795479537952795BA95C9F7620F731F09
S1131180841F951FA01D08952F923F924F925F9246
S11311906F927F928F929F92AF92BF92CF92DF9283
S11311A0EF92FF920F931F93CF93DF93CDB7DEB7E8
S11311B0CA1BDB0B0FB6F894DEBF0FBECDBF09947C
S11311C02A88398848885F846E847D848C849B84D3
S11311D0AA84B984C884DF80EE80FD800C811B81E1
S11311E0AA81B981CE0FD11D0FB6F894DEBF0FBE10
S10D11F0CDBFED010895F894FFCF80
S11311FA6661696C656420746F2069737375652010
S113120A737461727420636F6E646974696F6E209B
S113121A0A0D00646F6E65207374617274200A0D7E
S113122A003630353020696E697469616C697A6593
S113123A64200A0D00783A2025692E256925692C2F
S113124A20793A2025692E256925692C207A3A20A5
S10D125A25692E256925690A0D0097
S9030000FC
